{
  "contractName": "Assignment",
  "abi": [
    {
      "constant": true,
      "inputs": [
        {
          "name": "",
          "type": "uint256"
        }
      ],
      "name": "users",
      "outputs": [
        {
          "name": "user_name",
          "type": "string"
        },
        {
          "name": "full_name",
          "type": "string"
        },
        {
          "name": "pass_word",
          "type": "string"
        },
        {
          "name": "public_key",
          "type": "address"
        }
      ],
      "payable": false,
      "stateMutability": "view",
      "type": "function",
      "signature": "0x365b98b2"
    },
    {
      "constant": true,
      "inputs": [],
      "name": "totalusers",
      "outputs": [
        {
          "name": "",
          "type": "uint256"
        }
      ],
      "payable": false,
      "stateMutability": "view",
      "type": "function",
      "signature": "0x657d1471"
    },
    {
      "inputs": [],
      "payable": false,
      "stateMutability": "nonpayable",
      "type": "constructor",
      "signature": "constructor"
    },
    {
      "constant": false,
      "inputs": [
        {
          "name": "_username",
          "type": "string"
        },
        {
          "name": "_fullname",
          "type": "string"
        },
        {
          "name": "_password",
          "type": "string"
        },
        {
          "name": "_publickey",
          "type": "address"
        }
      ],
      "name": "newUser",
      "outputs": [],
      "payable": false,
      "stateMutability": "nonpayable",
      "type": "function",
      "signature": "0x9262ddfb"
    },
    {
      "constant": true,
      "inputs": [
        {
          "name": "_username",
          "type": "string"
        }
      ],
      "name": "getUserFromUsername",
      "outputs": [
        {
          "name": "",
          "type": "string"
        },
        {
          "name": "",
          "type": "string"
        },
        {
          "name": "",
          "type": "string"
        },
        {
          "name": "",
          "type": "address"
        }
      ],
      "payable": false,
      "stateMutability": "view",
      "type": "function",
      "signature": "0x26aabd0e"
    },
    {
      "constant": true,
      "inputs": [
        {
          "name": "index",
          "type": "uint256"
        }
      ],
      "name": "getUserFromIndex",
      "outputs": [
        {
          "name": "",
          "type": "string"
        },
        {
          "name": "",
          "type": "string"
        },
        {
          "name": "",
          "type": "string"
        },
        {
          "name": "",
          "type": "address"
        }
      ],
      "payable": false,
      "stateMutability": "view",
      "type": "function",
      "signature": "0x5f6b2405"
    },
    {
      "constant": true,
      "inputs": [],
      "name": "getNoOfUsers",
      "outputs": [
        {
          "name": "",
          "type": "uint256"
        }
      ],
      "payable": false,
      "stateMutability": "view",
      "type": "function",
      "signature": "0x34f5138e"
    },
    {
      "constant": false,
      "inputs": [
        {
          "name": "_username",
          "type": "string"
        },
        {
          "name": "_name",
          "type": "string"
        },
        {
          "name": "_price",
          "type": "uint256"
        },
        {
          "name": "_owner",
          "type": "string"
        }
      ],
      "name": "addItem",
      "outputs": [
        {
          "name": "",
          "type": "uint256"
        }
      ],
      "payable": false,
      "stateMutability": "nonpayable",
      "type": "function",
      "signature": "0x13df81d6"
    },
    {
      "constant": true,
      "inputs": [
        {
          "name": "_username",
          "type": "string"
        },
        {
          "name": "index",
          "type": "uint256"
        }
      ],
      "name": "getItems",
      "outputs": [
        {
          "name": "",
          "type": "string"
        },
        {
          "name": "",
          "type": "string"
        },
        {
          "name": "",
          "type": "uint256"
        },
        {
          "name": "",
          "type": "string"
        },
        {
          "name": "",
          "type": "bool"
        }
      ],
      "payable": false,
      "stateMutability": "view",
      "type": "function",
      "signature": "0xcfa5e471"
    },
    {
      "constant": false,
      "inputs": [
        {
          "name": "_username",
          "type": "string"
        },
        {
          "name": "index",
          "type": "uint256"
        },
        {
          "name": "_newOwner",
          "type": "string"
        }
      ],
      "name": "updateItem",
      "outputs": [],
      "payable": false,
      "stateMutability": "nonpayable",
      "type": "function",
      "signature": "0xc9374b84"
    },
    {
      "constant": false,
      "inputs": [
        {
          "name": "_username",
          "type": "string"
        },
        {
          "name": "index",
          "type": "uint256"
        },
        {
          "name": "_newOwner",
          "type": "string"
        }
      ],
      "name": "buyItem",
      "outputs": [],
      "payable": false,
      "stateMutability": "nonpayable",
      "type": "function",
      "signature": "0xa569320c"
    },
    {
      "constant": true,
      "inputs": [
        {
          "name": "_username",
          "type": "string"
        }
      ],
      "name": "getNumberOfItems",
      "outputs": [
        {
          "name": "",
          "type": "uint256"
        }
      ],
      "payable": false,
      "stateMutability": "view",
      "type": "function",
      "signature": "0xe506db35"
    },
    {
      "constant": true,
      "inputs": [
        {
          "name": "_username",
          "type": "string"
        },
        {
          "name": "index",
          "type": "uint256"
        }
      ],
      "name": "getBuyItems",
      "outputs": [
        {
          "name": "",
          "type": "string"
        },
        {
          "name": "",
          "type": "string"
        },
        {
          "name": "",
          "type": "uint256"
        },
        {
          "name": "",
          "type": "string"
        },
        {
          "name": "",
          "type": "bool"
        }
      ],
      "payable": false,
      "stateMutability": "view",
      "type": "function",
      "signature": "0x43fda9dc"
    },
    {
      "constant": true,
      "inputs": [
        {
          "name": "_username",
          "type": "string"
        },
        {
          "name": "index",
          "type": "uint256"
        }
      ],
      "name": "getSellItems",
      "outputs": [
        {
          "name": "",
          "type": "string"
        },
        {
          "name": "",
          "type": "string"
        },
        {
          "name": "",
          "type": "uint256"
        },
        {
          "name": "",
          "type": "string"
        },
        {
          "name": "",
          "type": "bool"
        }
      ],
      "payable": false,
      "stateMutability": "view",
      "type": "function",
      "signature": "0x1ff6cd04"
    },
    {
      "constant": true,
      "inputs": [
        {
          "name": "_username",
          "type": "string"
        }
      ],
      "name": "getBuyLength",
      "outputs": [
        {
          "name": "",
          "type": "uint256"
        }
      ],
      "payable": false,
      "stateMutability": "view",
      "type": "function",
      "signature": "0xefcf3d1e"
    },
    {
      "constant": true,
      "inputs": [
        {
          "name": "_username",
          "type": "string"
        }
      ],
      "name": "getSellLength",
      "outputs": [
        {
          "name": "",
          "type": "uint256"
        }
      ],
      "payable": false,
      "stateMutability": "view",
      "type": "function",
      "signature": "0x81654bee"
    }
  ],
  "bytecode": "0x608060405234801561001057600080fd5b506136dc806100206000396000f3fe6080604052600436106100db576000357c0100000000000000000000000000000000000000000000000000000000900463ffffffff16806313df81d6146100e05780631ff6cd04146102f457806326aabd0e1461052957806334f5138e14610775578063365b98b2146107a057806343fda9dc1461095f5780635f6b240514610b94578063657d147114610d5357806381654bee14610d7e5780639262ddfb14610e5a578063a569320c14611070578063c9374b84146111d9578063cfa5e47114611342578063e506db3514611577578063efcf3d1e14611653575b600080fd5b3480156100ec57600080fd5b506102de6004803603608081101561010357600080fd5b810190808035906020019064010000000081111561012057600080fd5b82018360208201111561013257600080fd5b8035906020019184600183028401116401000000008311171561015457600080fd5b91908080601f016020809104026020016040519081016040528093929190818152602001838380828437600081840152601f19601f820116905080830192505050505050509192919290803590602001906401000000008111156101b757600080fd5b8201836020820111156101c957600080fd5b803590602001918460018302840111640100000000831117156101eb57600080fd5b91908080601f016020809104026020016040519081016040528093929190818152602001838380828437600081840152601f19601f820116905080830192505050505050509192919290803590602001909291908035906020019064010000000081111561025857600080fd5b82018360208201111561026a57600080fd5b8035906020019184600183028401116401000000008311171561028c57600080fd5b91908080601f016020809104026020016040519081016040528093929190818152602001838380828437600081840152601f19601f82011690508083019250505050505050919291929050505061172f565b6040518082815260200191505060405180910390f35b34801561030057600080fd5b506103c46004803603604081101561031757600080fd5b810190808035906020019064010000000081111561033457600080fd5b82018360208201111561034657600080fd5b8035906020019184600183028401116401000000008311171561036857600080fd5b91908080601f016020809104026020016040519081016040528093929190818152602001838380828437600081840152601f19601f82011690508083019250505050505050919291929080359060200190929190505050611899565b6040518080602001806020018681526020018060200185151515158152602001848103845289818151815260200191508051906020019080838360005b8381101561041c578082015181840152602081019050610401565b50505050905090810190601f1680156104495780820380516001836020036101000a031916815260200191505b50848103835288818151815260200191508051906020019080838360005b83811015610482578082015181840152602081019050610467565b50505050905090810190601f1680156104af5780820380516001836020036101000a031916815260200191505b50848103825286818151815260200191508051906020019080838360005b838110156104e85780820151818401526020810190506104cd565b50505050905090810190601f1680156105155780820380516001836020036101000a031916815260200191505b509850505050505050505060405180910390f35b34801561053557600080fd5b506105ef6004803603602081101561054c57600080fd5b810190808035906020019064010000000081111561056957600080fd5b82018360208201111561057b57600080fd5b8035906020019184600183028401116401000000008311171561059d57600080fd5b91908080601f016020809104026020016040519081016040528093929190818152602001838380828437600081840152601f19601f820116905080830192505050505050509192919290505050611b80565b604051808060200180602001806020018573ffffffffffffffffffffffffffffffffffffffff1673ffffffffffffffffffffffffffffffffffffffff168152602001848103845288818151815260200191508051906020019080838360005b8381101561066957808201518184015260208101905061064e565b50505050905090810190601f1680156106965780820380516001836020036101000a031916815260200191505b50848103835287818151815260200191508051906020019080838360005b838110156106cf5780820151818401526020810190506106b4565b50505050905090810190601f1680156106fc5780820380516001836020036101000a031916815260200191505b50848103825286818151815260200191508051906020019080838360005b8381101561073557808201518184015260208101905061071a565b50505050905090810190601f1680156107625780820380516001836020036101000a031916815260200191505b5097505050505050505060405180910390f35b34801561078157600080fd5b5061078a611f65565b6040518082815260200191505060405180910390f35b3480156107ac57600080fd5b506107d9600480360360208110156107c357600080fd5b8101908080359060200190929190505050611f71565b604051808060200180602001806020018573ffffffffffffffffffffffffffffffffffffffff1673ffffffffffffffffffffffffffffffffffffffff168152602001848103845288818151815260200191508051906020019080838360005b83811015610853578082015181840152602081019050610838565b50505050905090810190601f1680156108805780820380516001836020036101000a031916815260200191505b50848103835287818151815260200191508051906020019080838360005b838110156108b957808201518184015260208101905061089e565b50505050905090810190601f1680156108e65780820380516001836020036101000a031916815260200191505b50848103825286818151815260200191508051906020019080838360005b8381101561091f578082015181840152602081019050610904565b50505050905090810190601f16801561094c5780820380516001836020036101000a031916815260200191505b5097505050505050505060405180910390f35b34801561096b57600080fd5b50610a2f6004803603604081101561098257600080fd5b810190808035906020019064010000000081111561099f57600080fd5b8201836020820111156109b157600080fd5b803590602001918460018302840111640100000000831117156109d357600080fd5b91908080601f016020809104026020016040519081016040528093929190818152602001838380828437600081840152601f19601f82011690508083019250505050505050919291929080359060200190929190505050612198565b6040518080602001806020018681526020018060200185151515158152602001848103845289818151815260200191508051906020019080838360005b83811015610a87578082015181840152602081019050610a6c565b50505050905090810190601f168015610ab45780820380516001836020036101000a031916815260200191505b50848103835288818151815260200191508051906020019080838360005b83811015610aed578082015181840152602081019050610ad2565b50505050905090810190601f168015610b1a5780820380516001836020036101000a031916815260200191505b50848103825286818151815260200191508051906020019080838360005b83811015610b53578082015181840152602081019050610b38565b50505050905090810190601f168015610b805780820380516001836020036101000a031916815260200191505b509850505050505050505060405180910390f35b348015610ba057600080fd5b50610bcd60048036036020811015610bb757600080fd5b810190808035906020019092919050505061247f565b604051808060200180602001806020018573ffffffffffffffffffffffffffffffffffffffff1673ffffffffffffffffffffffffffffffffffffffff168152602001848103845288818151815260200191508051906020019080838360005b83811015610c47578082015181840152602081019050610c2c565b50505050905090810190601f168015610c745780820380516001836020036101000a031916815260200191505b50848103835287818151815260200191508051906020019080838360005b83811015610cad578082015181840152602081019050610c92565b50505050905090810190601f168015610cda5780820380516001836020036101000a031916815260200191505b50848103825286818151815260200191508051906020019080838360005b83811015610d13578082015181840152602081019050610cf8565b50505050905090810190601f168015610d405780820380516001836020036101000a031916815260200191505b5097505050505050505060405180910390f35b348015610d5f57600080fd5b50610d68612722565b6040518082815260200191505060405180910390f35b348015610d8a57600080fd5b50610e4460048036036020811015610da157600080fd5b8101908080359060200190640100000000811115610dbe57600080fd5b820183602082011115610dd057600080fd5b80359060200191846001830284011164010000000083111715610df257600080fd5b91908080601f016020809104026020016040519081016040528093929190818152602001838380828437600081840152601f19601f820116905080830192505050505050509192919290505050612728565b6040518082815260200191505060405180910390f35b348015610e6657600080fd5b5061106e60048036036080811015610e7d57600080fd5b8101908080359060200190640100000000811115610e9a57600080fd5b820183602082011115610eac57600080fd5b80359060200191846001830284011164010000000083111715610ece57600080fd5b91908080601f016020809104026020016040519081016040528093929190818152602001838380828437600081840152601f19601f82011690508083019250505050505050919291929080359060200190640100000000811115610f3157600080fd5b820183602082011115610f4357600080fd5b80359060200191846001830284011164010000000083111715610f6557600080fd5b91908080601f016020809104026020016040519081016040528093929190818152602001838380828437600081840152601f19601f82011690508083019250505050505050919291929080359060200190640100000000811115610fc857600080fd5b820183602082011115610fda57600080fd5b80359060200191846001830284011164010000000083111715610ffc57600080fd5b91908080601f016020809104026020016040519081016040528093929190818152602001838380828437600081840152601f19601f820116905080830192505050505050509192919290803573ffffffffffffffffffffffffffffffffffffffff1690602001909291905050506127a5565b005b34801561107c57600080fd5b506111d76004803603606081101561109357600080fd5b81019080803590602001906401000000008111156110b057600080fd5b8201836020820111156110c257600080fd5b803590602001918460018302840111640100000000831117156110e457600080fd5b91908080601f016020809104026020016040519081016040528093929190818152602001838380828437600081840152601f19601f820116905080830192505050505050509192919290803590602001909291908035906020019064010000000081111561115157600080fd5b82018360208201111561116357600080fd5b8035906020019184600183028401116401000000008311171561118557600080fd5b91908080601f016020809104026020016040519081016040528093929190818152602001838380828437600081840152601f19601f820116905080830192505050505050509192919290505050612a3d565b005b3480156111e557600080fd5b50611340600480360360608110156111fc57600080fd5b810190808035906020019064010000000081111561121957600080fd5b82018360208201111561122b57600080fd5b8035906020019184600183028401116401000000008311171561124d57600080fd5b91908080601f016020809104026020016040519081016040528093929190818152602001838380828437600081840152601f19601f82011690508083019250505050505050919291929080359060200190929190803590602001906401000000008111156112ba57600080fd5b8201836020820111156112cc57600080fd5b803590602001918460018302840111640100000000831117156112ee57600080fd5b91908080601f016020809104026020016040519081016040528093929190818152602001838380828437600081840152601f19601f820116905080830192505050505050509192919290505050613009565b005b34801561134e57600080fd5b506114126004803603604081101561136557600080fd5b810190808035906020019064010000000081111561138257600080fd5b82018360208201111561139457600080fd5b803590602001918460018302840111640100000000831117156113b657600080fd5b91908080601f016020809104026020016040519081016040528093929190818152602001838380828437600081840152601f19601f820116905080830192505050505050509192919290803590602001909291905050506130b2565b6040518080602001806020018681526020018060200185151515158152602001848103845289818151815260200191508051906020019080838360005b8381101561146a57808201518184015260208101905061144f565b50505050905090810190601f1680156114975780820380516001836020036101000a031916815260200191505b50848103835288818151815260200191508051906020019080838360005b838110156114d05780820151818401526020810190506114b5565b50505050905090810190601f1680156114fd5780820380516001836020036101000a031916815260200191505b50848103825286818151815260200191508051906020019080838360005b8381101561153657808201518184015260208101905061151b565b50505050905090810190601f1680156115635780820380516001836020036101000a031916815260200191505b509850505050505050505060405180910390f35b34801561158357600080fd5b5061163d6004803603602081101561159a57600080fd5b81019080803590602001906401000000008111156115b757600080fd5b8201836020820111156115c957600080fd5b803590602001918460018302840111640100000000831117156115eb57600080fd5b91908080601f016020809104026020016040519081016040528093929190818152602001838380828437600081840152601f19601f820116905080830192505050505050509192919290505050613399565b6040518082815260200191505060405180910390f35b34801561165f57600080fd5b506117196004803603602081101561167657600080fd5b810190808035906020019064010000000081111561169357600080fd5b8201836020820111156116a557600080fd5b803590602001918460018302840111640100000000831117156116c757600080fd5b91908080601f016020809104026020016040519081016040528093929190818152602001838380828437600081840152601f19601f820116905080830192505050505050509192919290505050613416565b6040518082815260200191505060405180910390f35b6000611739613493565b60006004876040518082805190602001908083835b602083101515611773578051825260208201915060208101905060208303925061174e565b6001836020036101000a0380198251168184511680821785525050505050509050019150509081526020016040518091039020905086826000018190525085826020018190525084826040018181525050838260600181905250600082608001901515908115158152505080829080600181540180825580915050906001820390600052602060002090600502016000909192909190915060008201518160000190805190602001906118279291906134c5565b5060208201518160010190805190602001906118449291906134c5565b5060408201518160020155606082015181600301908051906020019061186b9291906134c5565b5060808201518160040160006101000a81548160ff0219169083151502179055505050505050949350505050565b6060806000606060006118aa613493565b6005886040518082805190602001908083835b6020831015156118e257805182526020820191506020810190506020830392506118bd565b6001836020036101000a03801982511681845116808217855250505050505090500191505090815260200160405180910390208781548110151561192257fe5b906000526020600020906005020160a06040519081016040529081600082018054600181600116156101000203166002900480601f0160208091040260200160405190810160405280929190818152602001828054600181600116156101000203166002900480156119d55780601f106119aa576101008083540402835291602001916119d5565b820191906000526020600020905b8154815290600101906020018083116119b857829003601f168201915b50505050508152602001600182018054600181600116156101000203166002900480601f016020809104026020016040519081016040528092919081815260200182805460018160011615610100020316600290048015611a775780601f10611a4c57610100808354040283529160200191611a77565b820191906000526020600020905b815481529060010190602001808311611a5a57829003601f168201915b5050505050815260200160028201548152602001600382018054600181600116156101000203166002900480601f016020809104026020016040519081016040528092919081815260200182805460018160011615610100020316600290048015611b235780601f10611af857610100808354040283529160200191611b23565b820191906000526020600020905b815481529060010190602001808311611b0657829003601f168201915b505050505081526020016004820160009054906101000a900460ff16151515158152505090508060000151816020015182604001518360600151846080015184945083935081915095509550955095509550509295509295909350565b60608060606000611b8f613545565b6002866040518082805190602001908083835b602083101515611bc75780518252602082019150602081019050602083039250611ba2565b6001836020036101000a038019825116818451168082178552505050505050905001915050908152602001604051809103902060806040519081016040529081600082018054600181600116156101000203166002900480601f016020809104026020016040519081016040528092919081815260200182805460018160011615610100020316600290048015611c9f5780601f10611c7457610100808354040283529160200191611c9f565b820191906000526020600020905b815481529060010190602001808311611c8257829003601f168201915b50505050508152602001600182018054600181600116156101000203166002900480601f016020809104026020016040519081016040528092919081815260200182805460018160011615610100020316600290048015611d415780601f10611d1657610100808354040283529160200191611d41565b820191906000526020600020905b815481529060010190602001808311611d2457829003601f168201915b50505050508152602001600282018054600181600116156101000203166002900480601f016020809104026020016040519081016040528092919081815260200182805460018160011615610100020316600290048015611de35780601f10611db857610100808354040283529160200191611de3565b820191906000526020600020905b815481529060010190602001808311611dc657829003601f168201915b505050505081526020016003820160009054906101000a900473ffffffffffffffffffffffffffffffffffffffff1673ffffffffffffffffffffffffffffffffffffffff1673ffffffffffffffffffffffffffffffffffffffff16815250509050600115156003876040518082805190602001908083835b602083101515611e805780518252602082019150602081019050602083039250611e5b565b6001836020036101000a038019825116818451168082178552505050505050905001915050908152602001604051809103902060009054906101000a900460ff161515141515611f38576040517f08c379a00000000000000000000000000000000000000000000000000000000081526004018080602001828103825260188152602001807f5265636f726420646f6573206e6f742065786973742e2e2e000000000000000081525060200191505060405180910390fd5b80600001518160200151826040015183606001518393508292508191509450945094509450509193509193565b60008080549050905090565b600081815481101515611f8057fe5b9060005260206000209060040201600091509050806000018054600181600116156101000203166002900480601f01602080910402602001604051908101604052809291908181526020018280546001816001161561010002031660029004801561202c5780601f106120015761010080835404028352916020019161202c565b820191906000526020600020905b81548152906001019060200180831161200f57829003601f168201915b505050505090806001018054600181600116156101000203166002900480601f0160208091040260200160405190810160405280929190818152602001828054600181600116156101000203166002900480156120ca5780601f1061209f576101008083540402835291602001916120ca565b820191906000526020600020905b8154815290600101906020018083116120ad57829003601f168201915b505050505090806002018054600181600116156101000203166002900480601f0160208091040260200160405190810160405280929190818152602001828054600181600116156101000203166002900480156121685780601f1061213d57610100808354040283529160200191612168565b820191906000526020600020905b81548152906001019060200180831161214b57829003601f168201915b5050505050908060030160009054906101000a900473ffffffffffffffffffffffffffffffffffffffff16905084565b6060806000606060006121a9613493565b6006886040518082805190602001908083835b6020831015156121e157805182526020820191506020810190506020830392506121bc565b6001836020036101000a03801982511681845116808217855250505050505090500191505090815260200160405180910390208781548110151561222157fe5b906000526020600020906005020160a06040519081016040529081600082018054600181600116156101000203166002900480601f0160208091040260200160405190810160405280929190818152602001828054600181600116156101000203166002900480156122d45780601f106122a9576101008083540402835291602001916122d4565b820191906000526020600020905b8154815290600101906020018083116122b757829003601f168201915b50505050508152602001600182018054600181600116156101000203166002900480601f0160208091040260200160405190810160405280929190818152602001828054600181600116156101000203166002900480156123765780601f1061234b57610100808354040283529160200191612376565b820191906000526020600020905b81548152906001019060200180831161235957829003601f168201915b5050505050815260200160028201548152602001600382018054600181600116156101000203166002900480601f0160208091040260200160405190810160405280929190818152602001828054600181600116156101000203166002900480156124225780601f106123f757610100808354040283529160200191612422565b820191906000526020600020905b81548152906001019060200180831161240557829003601f168201915b505050505081526020016004820160009054906101000a900460ff16151515158152505090508060000151816020015182604001518360600151846080015184945083935081915095509550955095509550509295509295909350565b6060806060600061248e613545565b60008681548110151561249d57fe5b906000526020600020906004020160806040519081016040529081600082018054600181600116156101000203166002900480601f0160208091040260200160405190810160405280929190818152602001828054600181600116156101000203166002900480156125505780601f1061252557610100808354040283529160200191612550565b820191906000526020600020905b81548152906001019060200180831161253357829003601f168201915b50505050508152602001600182018054600181600116156101000203166002900480601f0160208091040260200160405190810160405280929190818152602001828054600181600116156101000203166002900480156125f25780601f106125c7576101008083540402835291602001916125f2565b820191906000526020600020905b8154815290600101906020018083116125d557829003601f168201915b50505050508152602001600282018054600181600116156101000203166002900480601f0160208091040260200160405190810160405280929190818152602001828054600181600116156101000203166002900480156126945780601f1061266957610100808354040283529160200191612694565b820191906000526020600020905b81548152906001019060200180831161267757829003601f168201915b505050505081526020016003820160009054906101000a900473ffffffffffffffffffffffffffffffffffffffff1673ffffffffffffffffffffffffffffffffffffffff1673ffffffffffffffffffffffffffffffffffffffff1681525050905080600001518160200151826040015183606001518393508292508191509450945094509450509193509193565b60015481565b6000806005836040518082805190602001908083835b602083101515612763578051825260208201915060208101905060208303925061273e565b6001836020036101000a038019825116818451168082178552505050505050905001915050908152602001604051809103902090508080549050915050919050565b60006002856040518082805190602001908083835b6020831015156127df57805182526020820191506020810190506020830392506127ba565b6001836020036101000a038019825116818451168082178552505050505050905001915050908152602001604051809103902090508481600001908051906020019061282c929190613584565b5083816001019080519060200190612845929190613584565b508281600201908051906020019061285e929190613584565b50818160030160006101000a81548173ffffffffffffffffffffffffffffffffffffffff021916908373ffffffffffffffffffffffffffffffffffffffff16021790555060008190806001815401808255809150509060018203906000526020600020906004020160009091929091909150600082018160000190805460018160011615610100020316600290046128f7929190613604565b506001820181600101908054600181600116156101000203166002900461291f929190613604565b5060028201816002019080546001816001161561010002031660029004612947929190613604565b506003820160009054906101000a900473ffffffffffffffffffffffffffffffffffffffff168160030160006101000a81548173ffffffffffffffffffffffffffffffffffffffff021916908373ffffffffffffffffffffffffffffffffffffffff16021790555050505060016003866040518082805190602001908083835b6020831015156129ec57805182526020820191506020810190506020830392506129c7565b6001836020036101000a038019825116818451168082178552505050505050905001915050908152602001604051809103902060006101000a81548160ff0219169083151502179055505050505050565b612a45613493565b6004846040518082805190602001908083835b602083101515612a7d5780518252602082019150602081019050602083039250612a58565b6001836020036101000a038019825116818451168082178552505050505050905001915050908152602001604051809103902083815481101515612abd57fe5b906000526020600020906005020160a06040519081016040529081600082018054600181600116156101000203166002900480601f016020809104026020016040519081016040528092919081815260200182805460018160011615610100020316600290048015612b705780601f10612b4557610100808354040283529160200191612b70565b820191906000526020600020905b815481529060010190602001808311612b5357829003601f168201915b50505050508152602001600182018054600181600116156101000203166002900480601f016020809104026020016040519081016040528092919081815260200182805460018160011615610100020316600290048015612c125780601f10612be757610100808354040283529160200191612c12565b820191906000526020600020905b815481529060010190602001808311612bf557829003601f168201915b5050505050815260200160028201548152602001600382018054600181600116156101000203166002900480601f016020809104026020016040519081016040528092919081815260200182805460018160011615610100020316600290048015612cbe5780601f10612c9357610100808354040283529160200191612cbe565b820191906000526020600020905b815481529060010190602001808311612ca157829003601f168201915b505050505081526020016004820160009054906101000a900460ff161515151581525050905060006006836040518082805190602001908083835b602083101515612d1e5780518252602082019150602081019050602083039250612cf9565b6001836020036101000a0380198251168184511680821785525050505050509050019150509081526020016040518091039020905060006005866040518082805190602001908083835b602083101515612d8d5780518252602082019150602081019050602083039250612d68565b6001836020036101000a0380198251168184511680821785525050505050509050019150509081526020016040518091039020905083836000018190525085836060018190525060018360800190151590811515815250508183908060018154018082558091505090600182039060005260206000209060050201600090919290919091506000820151816000019080519060200190612e2e9291906134c5565b506020820151816001019080519060200190612e4b9291906134c5565b50604082015181600201556060820151816003019080519060200190612e729291906134c5565b5060808201518160040160006101000a81548160ff0219169083151502179055505050508583600001819052508383606001819052508083908060018154018082558091505090600182039060005260206000209060050201600090919290919091506000820151816000019080519060200190612ef19291906134c5565b506020820151816001019080519060200190612f0e9291906134c5565b50604082015181600201556060820151816003019080519060200190612f359291906134c5565b5060808201518160040160006101000a81548160ff02191690831515021790555050505060006004876040518082805190602001908083835b602083101515612f935780518252602082019150602081019050602083039250612f6e565b6001836020036101000a038019825116818451168082178552505050505050905001915050908152602001604051809103902086815481101515612fd357fe5b9060005260206000209060050201905060018160040160006101000a81548160ff02191690831515021790555050505050505050565b60006004846040518082805190602001908083835b602083101515613043578051825260208201915060208101905060208303925061301e565b6001836020036101000a03801982511681845116808217855250505050505090500191505090815260200160405180910390208381548110151561308357fe5b90600052602060002090600502019050818160030190805190602001906130ab929190613584565b5050505050565b6060806000606060006130c3613493565b6004886040518082805190602001908083835b6020831015156130fb57805182526020820191506020810190506020830392506130d6565b6001836020036101000a03801982511681845116808217855250505050505090500191505090815260200160405180910390208781548110151561313b57fe5b906000526020600020906005020160a06040519081016040529081600082018054600181600116156101000203166002900480601f0160208091040260200160405190810160405280929190818152602001828054600181600116156101000203166002900480156131ee5780601f106131c3576101008083540402835291602001916131ee565b820191906000526020600020905b8154815290600101906020018083116131d157829003601f168201915b50505050508152602001600182018054600181600116156101000203166002900480601f0160208091040260200160405190810160405280929190818152602001828054600181600116156101000203166002900480156132905780601f1061326557610100808354040283529160200191613290565b820191906000526020600020905b81548152906001019060200180831161327357829003601f168201915b5050505050815260200160028201548152602001600382018054600181600116156101000203166002900480601f01602080910402602001604051908101604052809291908181526020018280546001816001161561010002031660029004801561333c5780601f106133115761010080835404028352916020019161333c565b820191906000526020600020905b81548152906001019060200180831161331f57829003601f168201915b505050505081526020016004820160009054906101000a900460ff16151515158152505090508060000151816020015182604001518360600151846080015184945083935081915095509550955095509550509295509295909350565b6000806004836040518082805190602001908083835b6020831015156133d457805182526020820191506020810190506020830392506133af565b6001836020036101000a038019825116818451168082178552505050505050905001915050908152602001604051809103902090508080549050915050919050565b6000806006836040518082805190602001908083835b602083101515613451578051825260208201915060208101905060208303925061342c565b6001836020036101000a038019825116818451168082178552505050505050905001915050908152602001604051809103902090508080549050915050919050565b60a060405190810160405280606081526020016060815260200160008152602001606081526020016000151581525090565b828054600181600116156101000203166002900490600052602060002090601f016020900481019282601f1061350657805160ff1916838001178555613534565b82800160010185558215613534579182015b82811115613533578251825591602001919060010190613518565b5b509050613541919061368b565b5090565b608060405190810160405280606081526020016060815260200160608152602001600073ffffffffffffffffffffffffffffffffffffffff1681525090565b828054600181600116156101000203166002900490600052602060002090601f016020900481019282601f106135c557805160ff19168380011785556135f3565b828001600101855582156135f3579182015b828111156135f25782518255916020019190600101906135d7565b5b509050613600919061368b565b5090565b828054600181600116156101000203166002900490600052602060002090601f016020900481019282601f1061363d578054855561367a565b8280016001018555821561367a57600052602060002091601f016020900482015b8281111561367957825482559160010191906001019061365e565b5b509050613687919061368b565b5090565b6136ad91905b808211156136a9576000816000905550600101613691565b5090565b9056fea165627a7a723058203bc6526c6e4110add52b0e73c15ca51dbbf57b9d36feae3d8534f434c5422e8f0029",
  "source": "pragma solidity ^0.5.0;\n\n\n\ncontract Assignment \n{    \n\n\n struct User{\n        \n        string user_name;\n        string full_name;\n        string pass_word;\n        address public_key;\n        \n        }\n    \n\n     /*struct Item{\n            string name;\n            uint price;\n            string owner;\n        }*/\n\n\n  struct Item{\n            string user;\n            string name;\n            uint price;\n            string owner;\n            bool isTransacted;\n         \n     }\n\n    \n   \n    User[] public users;\n    uint public totalusers;\n      \n\n\n    mapping(string => User) userInfo;\n    mapping(string => bool) isUserExist;\n     mapping(string => Item[])private all_Items;\n         mapping(string => Item[])private sell_Items;\n     mapping(string => Item[])private buy_Items;\n\n\n\n    constructor() public  {\n                     // Set the symbol for display purposes\n    }\n   \n    function newUser(string memory _username, string memory _fullname, string memory _password, address _publickey)  public {   //Set the details of doctors\n        \n       User storage u =userInfo[_username];\n     \n        u.user_name=_username;\n        u.full_name=_fullname;\n        u.pass_word=_password;\n        u.public_key=_publickey;\n           users.push(u);\n         \n        isUserExist[_username] = true;\n    }\n    \n    \n    function getUserFromUsername(string memory _username) public view returns(string memory, string memory, string memory,address) {    //Get doctor details\n        \n        User memory u=userInfo[_username];\n        require(isUserExist[_username] == true, \"Record does not exist...\");\n        return (u.user_name,u.full_name,u.pass_word,u.public_key);\n    }\n    \n    function getUserFromIndex(uint index) public view returns (string memory, string memory, string memory,address) \n    {\n        User memory u=users[index];\n         return (u.user_name,u.full_name,u.pass_word,u.public_key);\n    }\n    \n    function getNoOfUsers()public view returns (uint)\n    {\n \n        return users.length;\n    }\n    \n\n/*\n     function addItem(string memory _username,string memory _name,uint _price,string memory _owner) public returns(uint)\n   {\n        Item memory temp;\n       Item[] storage allItems=all_Items[_username];\n       temp.name=_name;\n       temp.price=_price;\n       temp.owner=_owner;\n       allItems.push(temp);\n      \n   }\n    \n     function getItems(string memory _username,uint index) public view returns(string memory,uint,string memory)\n     {   \n        Item memory temp=all_Items[_username][index];\n        return (temp.name,temp.price,temp.owner);\n     \n    }\n    \n    function getNumberOfItems(string memory _username) public  view returns (uint)\n    {\n       Item[] storage allItems=all_Items[_username];\n        \n         return allItems.length;\n    }\n  */\n\n\n\n\n\n\n   function addItem(string memory _username,string memory _name,uint _price,string memory _owner) public returns(uint)\n   {\n        Item memory temp;\n       Item[] storage allItems=all_Items[_username];\n       temp.user=_username;\n       temp.name=_name;\n       temp.price=_price;\n       temp.owner=_owner;\n       temp.isTransacted=false;\n       allItems.push(temp);\n       \n      \n      \n   }\n    \n     function getItems(string memory _username,uint index) public view returns(string memory,string memory,uint,string memory,bool)\n     {   \n        Item memory temp=all_Items[_username][index];\n        return (temp.user,temp.name,temp.price,temp.owner,temp.isTransacted);\n     \n    }\n    \n    \n    function updateItem(string memory _username,uint index,string memory _newOwner) public \n     {   \n         //Item[] storage allItems=all_Items[_username];\n        Item storage temp=all_Items[_username][index];\n        temp.owner=_newOwner;\n    }\n    \n    \n    function buyItem(string memory _username,uint index,string memory _newOwner)public \n    {\n         Item memory temp=all_Items[_username][index];\n         Item[] storage buyItems=buy_Items[_newOwner];\n         Item[] storage sellItems=sell_Items[_username];\n         temp.user=_newOwner;\n         temp.owner=_username;\n         temp.isTransacted=true;\n         buyItems.push(temp);\n         temp.user=_username;\n         temp.owner=_newOwner;\n        \n         sellItems.push(temp);\n         \n          Item storage it=all_Items[_username][index];\n          it.isTransacted=true;\n         \n         \n         \n        \n    }\n    \n    \n    function getNumberOfItems(string memory _username) public  view returns (uint)\n    {\n       Item[] storage allItems=all_Items[_username];\n        \n         return allItems.length;\n    }\n  \n    function getBuyItems(string memory _username,uint index)public view returns(string memory,string memory,uint,string memory,bool)\n    {\n        Item memory tempItem=buy_Items[_username][index];\n        return(tempItem.user,tempItem.name,tempItem.price,tempItem.owner,tempItem.isTransacted);\n    }\n \n    function getSellItems(string memory _username,uint index)public view returns(string memory,string memory,uint,string memory,bool)\n    {\n        Item memory tempItem=sell_Items[_username][index];\n        return(tempItem.user,tempItem.name,tempItem.price,tempItem.owner,tempItem.isTransacted);\n    }\n    \n    function getBuyLength(string memory _username)public view returns(uint)\n    {   \n        Item[] storage tempItems=buy_Items[_username];\n        return tempItems.length;\n        \n    }\n    \n    function getSellLength(string memory _username)public view returns(uint)\n    {   \n        Item[] storage tempItems=sell_Items[_username];\n        return tempItems.length;\n        \n    }\n    \n   \n    \n    \n\n\n\n\n   /* struct User{\n        \n        string user_name;\n        string full_name;\n        string pass_word;\n        address public_key;\n        \n        }\n    \n    \n   \n    \n    mapping(string => User) userInfo;\n    mapping(string => bool) isUserExist;\n    \n    constructor() public  {\n                             // Set the symbol for display purposes\n    }\n   \n    function newUser(string memory _username, string memory _fullname, string memory _password, address _publickey)  public {   //Set the details of doctors\n        \n       User storage u =userInfo[_username];\n        \n        u.user_name=_username;\n        u.full_name=_fullname;\n        u.pass_word=_password;\n        u.public_key=_publickey;\n        isUserExist[_username] = true;\n    }\n    \n    \n    function getUser(string memory _username) public view returns(string memory, string memory, string memory,address) {    //Get doctor details\n        \n        User memory u=userInfo[_username];\n        require(isUserExist[_username] == true, \"Record does not exist...\");\n        return (u.user_name,u.full_name,u.pass_word,u.public_key);\n    }\n    \n    */\n   \n    \n}\n",
  "sourcePath": "D:/Blockchain/Assignment/contracts/Assignment.sol",
  "compiler": {
    "name": "solc",
    "version": "0.5.0+commit.1d4f565a.Emscripten.clang"
  },
  "schemaVersion": "3.0.2",
  "updatedAt": "2019-03-01T07:02:14.322Z",
  "devdoc": {
    "methods": {}
  },
  "userdoc": {
    "methods": {}
  }
}